:020000040000FA
:0400000043EF00F0DA
:020004000000FA
:08000800010E8C6EC80E156E8E
:10001000680E146E00000000000000000000142EA6
:10002000F9D7152EF5D7020E8C6EC80E156E680E18
:10003000146E00000000000000000000142EF9D72C
:10004000152EF5D7040E8C6EC80E156E680E146E44
:1000500000000000000000000000142EF9D7152E4B
:10006000F5D7080E8C6EC80E156E680E146E000063
:100070000000000000000000142EF9D7152EF5D75F
:100080008C6AF2921000816A936A8A6A93808C6A01
:10009000836A956A0F0EC16EF28EF288F292F19C1D
:0400A00050EF00F02D
:020000040030CA
:0100010008F6
:010002001FDE
:010003001EDE
:010005008377
:010006008178
:010008000FE8
:01000900C036
:01000A000FE6
:01000B00E014
:01000C000FE4
:01000D0040B2
:00000001FF
