:020000040000FA
:10000000896A8B6A8C6A926A956A100E926E0000F9
:10001000010E8C6E640E156E640E146E00000000EE
:10002000000080CF8BFF8BA840D000000000142E72
:10003000F5D7152EF1D7020E8C6E640E156E640E78
:10004000146E00000000000080CF8BFF8BA82DD025
:1000500000000000142EF5D7152EF1D7040E8C6E7B
:10006000640E156E640E146E00000000000080CF58
:100070008BFF8BA81AD000000000142EF5D7152E88
:10008000F1D7080E8C6E640E156E640E146E0000AF
:100090000000000080CF8BFF8BA807D0000000007D
:1000A000142EF5D7152EF1D7B2D7000E8C6E80B86E
:0600B00080B8FBD7ACD7BD
:0200B600000048
:020000040030CA
:0100010008F6
:010003001EDE
:010006008178
:00000001FF
