:020000040000FA
:040000003CEF00F0E1
:060008005A8267ED05F0CD
:100018005A80D8CF27F0E8CF28F0E0CF29F0D9CF01
:100028002AF0DACF2BF09EAA1CEF00F01EEF00F0AA
:1000380030EF00F0ABA223EF00F025EF00F02AEF3D
:1000480000F0AB9800F0AB882AEF00F000EC0EF05F
:1000580030EF00F030EF00F02BC0DAFF2AC0D9FFF4
:1000680029C0E0FF28C0E8FF27C0D8FF5A90100039
:040078008CEF0CF00D
:10060000004D6F6465312000627265617468004D51
:100610006F646532006D7573696300626C696E6B3F
:1006200000636C65617200310033003400350036C0
:1006300000370038007000710073000041EC0DF0CD
:10064000000E376E000E366E010E0001F96F060EB9
:10065000FA6F03EC0CF0B18E300EB112B192A19290
:10066000A082A282850EB36EED0EB26E38EF03F05B
:10067000A2EC0EF0F8C07FF1F9C080F1270E010165
:10068000816F060E826F71EC0AF001017F518011BB
:10069000D8B44DEF03F04FEF03F05BEF03F0000E23
:1006A000436E010E426E9494829441EC0DF0DAEFA9
:1006B00003F038EF03F0A2EC0EF0F8C07FF1F9C0C0
:1006C00080F1130E0101816F060E826F71EC0AF04A
:1006D00001017F518011D8B470EF03F072EF03F085
:1006E00080EF03F0000E436E020E426E94948294EB
:1006F000959A839A41EC0DF0DAEF03F038EF03F0AE
:10070000A2EC0EF0F8C07FF1F9C080F1290E0101D2
:10071000816F060E826F71EC0AF001017F5180112A
:10072000D8B495EF03F097EF03F0A7EF03F0000EB6
:10073000436E030E426E94948294959A839A959C8C
:10074000839C41EC0DF0DAEF03F038EF03F0A2ECFC
:100750000EF0F8C07FF1F9C080F12B0E0101816F1E
:10076000060E826F71EC0AF001017F518011D8B43E
:10077000BCEF03F0BEEF03F038EF03F0000E436E62
:10078000040E426E94948294959A839A959C839CCD
:10079000959E839E41EC0DF0DAEF03F038EF03F005
:1007A00038EF03F038EF03F038EF03F038EF03F0E1
:1007B000DAEF03F0A2EC0EF0F8C07FF1F9C080F19F
:1007C000270E0101816F060E826F71EC0AF00101A4
:1007D0007F518011D8B4EFEF03F0F1EF03F0FCEF9D
:1007E00003F0000E416E010E406EB18041EC0DF041
:1007F000FCEF04F0DAEF03F0A2EC0EF0F8C07FF1AA
:10080000F9C080F1130E0101816F060E826F71EC49
:100810000AF001017F518011D8B411EF04F013EFF9
:1008200004F01EEF04F0000E416E020E406EB18027
:1008300041EC0DF0FCEF04F0DAEF03F0A2EC0EF067
:10084000F8C07FF1F9C080F1290E0101816F060E19
:10085000826F71EC0AF001017F518011D8B433EF3F
:1008600004F035EF04F040EF04F0000E416E030E8B
:10087000406EB18041EC0DF0FCEF04F0DAEF03F0D4
:10088000A2EC0EF0F8C07FF1F9C080F12B0E01014F
:10089000816F060E826F71EC0AF001017F518011A9
:1008A000D8B455EF04F057EF04F062EF04F0000EF7
:1008B000416E040E406EB18041EC0DF0FCEF04F08F
:1008C000DAEF03F0A2EC0EF0F8C07FF1F9C080F18E
:1008D0002D0E0101816F060E826F71EC0AF001018D
:1008E0007F518011D8B477EF04F079EF04F084EFF2
:1008F00004F0000E416E050E406EB18041EC0DF02B
:10090000FCEF04F0DAEF03F0A2EC0EF0F8C07FF198
:10091000F9C080F12F0E0101816F060E826F71EC1C
:100920000AF001017F518011D8B499EF04F09BEFD8
:1009300004F0A6EF04F0000E416E060E406EB1808A
:1009400041EC0DF0FCEF04F0DAEF03F0A2EC0EF056
:10095000F8C07FF1F9C080F1310E0101816F060E00
:10096000826F71EC0AF001017F518011D8B4BBEFA6
:1009700004F0BDEF04F0C8EF04F0000E416E070E66
:10098000406EB18041EC0DF0FCEF04F0DAEF03F0C3
:10099000A2EC0EF0F8C07FF1F9C080F1330E010136
:1009A000816F060E826F71EC0AF001017F51801198
:1009B000D8B4DDEF04F0DFEF04F0DAEF03F0000E5F
:1009C000416E080E406EB18041EC0DF0FCEF04F07A
:1009D000DAEF03F0DAEF03F0DAEF03F0DAEF03F027
:1009E000DAEF03F0DAEF03F0DAEF03F0DAEF03F017
:1009F000DAEF03F0FCEF04F0A2EC0EF0F8C07FF1A8
:100A0000F9C080F1370E0101816F060E826F71EC23
:100A10000AF001017F518011D8B411EF05F013EFF6
:100A200005F0FCEF04F042044310D8A41AEF05F0DF
:100A30001CEF05F01FEF05F0829450EF05F0020E59
:100A400042184310D8A427EF05F029EF05F02DEF49
:100A500005F08294839A50EF05F0030E421843107C
:100A6000D8A435EF05F037EF05F03CEF05F08294A0
:100A7000839A839C50EF05F0040E42184310D8A4CB
:100A800044EF05F046EF05F050EF05F08294839AAD
:100A9000839C839E50EF05F050EF05F050EF05F07A
:100AA000B190A192A092A292000E436E000E426EEF
:100AB000000E416E000E406E41EC0DF064EF05F04B
:100AC000FCEF04F0FCEF04F041EC0DF01200060026
:100AD000D9CF19F0DACF1AF0F3CF1BF0F4CF1CF016
:100AE000F6CF1DF0F7CF1EF0F8CF1FF0F5CF20F0B6
:100AF0009EA07DEF05F07FEF05F046EF06F044C0C5
:100B000001F045C002F0000E046E3C0E036E24ECB2
:100B10000EF0000E156E010E166E015015260250D5
:100B20001622D8904634D96E4734DA6E1550D9263D
:100B30001650DA224850DE1807E14950DE18D8A4D2
:100B4000A4EF05F0A6EF05F022EF06F0000E496EC7
:100B5000000E486E464A472A44C001F045C002F0E4
:100B6000000E046E3C0E036E24EC0EF0800E156E2B
:100B7000000E166E0150152602501622D8904634EB
:100B8000D96E4734DA6E1550D9261650DA22DE5067
:100B9000DE10D8A4CEEF05F0D0EF05F0D3EF05F0CE
:100BA000CA9422EF06F0CA84240E076EF40E086E73
:100BB000000E096E000E0A6E44C001F045C002F03E
:100BC000000E046E3C0E036E24EC0EF0800E156ECB
:100BD000000E166E0150152602501622D89046348B
:100BE000D96E4734DA6E1550D9261650DA22DECF88
:100BF0000BF0DDCF0CF0000E0CBEFF0E0D6E0E6E76
:100C0000DBEC08F00750CB6ECB50020DF3CF01F0B8
:100C1000F4CF02F0000E046E040E036EFBEC09F03C
:100C20000150BB6ECB50020DF3CF15F0030E15161D
:100C3000153ABA501518CF0B1518BA6E22EF06F0F8
:100C400022EF06F0D8904434D96E4534DA6E560E51
:100C5000D926000EDA224650DE1807E14750DE188A
:100C6000D8A435EF06F037EF06F03DEF06F0000EA2
:100C7000476E000E466E3DEF06F0484A492A850E43
:100C8000CF6EED0ECE6E9E9073EF07F0A1A24BEFEC
:100C900006F04DEF06F073EF07F036503710D8A48A
:100CA00054EF06F056EF06F0FCEF06F03E503F1012
:100CB000D8A45DEF06F05FEF06F0F2EF06F0420415
:100CC0004310D8A466EF06F068EF06F073EF06F065
:100CD00082A46DEF06F070EF06F0828471EF06F0EB
:100CE0008294ECEF06F0020E42184310D8A47BEF7A
:100CF00006F07DEF06F091EF06F082A482EF06F099
:100D000085EF06F0828486EF06F0829483AA8BEF4B
:100D100006F08EEF06F0838A8FEF06F0839AECEFF1
:100D200006F0030E42184310D8A499EF06F09BEF8B
:100D300006F0B8EF06F082A4A0EF06F0A3EF06F0ED
:100D40008284A4EF06F0829483AAA9EF06F0ACEFA8
:100D500006F0838AADEF06F0839A83ACB2EF06F01B
:100D6000B5EF06F0838CB6EF06F0839CECEF06F04F
:100D7000040E42184310D8A4C0EF06F0C2EF06F0EC
:100D8000ECEF06F082A4C7EF06F0CAEF06F082840B
:100D9000CBEF06F0829483AAD0EF06F0D3EF06F0F3
:100DA000838AD4EF06F0839A83ACD9EF06F0DCEFA8
:100DB00006F0838CDDEF06F0839C83AEE2EF06F055
:100DC000E5EF06F0838EE6EF06F0839EECEF06F08B
:100DD000ECEF06F0ECEF06F040C03EF041C03FF013
:100DE000F2EF06F03E06D8A03F06A192850EB36E44
:100DF000ED0EB26E73EF07F036503710D8B403EF34
:100E000007F005EF07F073EF07F03AC002F03BC0C0
:100E100003F049EC0CF03A503B10D8A412EF07F065
:100E200014EF07F01AEF07F0000E396E000E386E5F
:100E300031EF07F0CB50156E166A3A50151807E1DE
:100E40003B501618D8A427EF07F029EF07F031EF31
:100E500007F0000E396E010E386E31EF07F031EFFA
:100E600007F038503910D8A438EF07F03AEF07F000
:100E70003EEF07F03A4A3B2A4EEF07F038043910AC
:100E8000D8A445EF07F047EF07F04EEF07F03A061A
:100E9000D8A03B064EEF07F04EEF07F0D8903A345B
:100EA000016E3B34026E000E046E040E036EFBEC0A
:100EB00009F00150BE6ED8903A34156E030E151627
:100EC000153ABD501518CF0B1518BD6EA192850EA1
:100ED000B36EED0EB26E73EF07F073EF07F073EFC2
:100EE00007F073EF07F020C0F5FF1FC0F8FF1EC02A
:100EF000F7FF1DC0F6FF1CC0F4FF1BC0F3FF1AC0B4
:100F0000DAFF19C0D9FF5A92110097EC0EF089EF61
:100F100007F0A2EC0EF0F8C07FF1F9C080F1210ECD
:100F20000101816F060E826F71EC0AF001017F51A1
:100F30008011D8B49EEF07F0A0EF07F0A4EF07F000
:100F400041EC0DF089EF07F0A2EC0EF0F8C0FAF0DA
:100F5000F9C0FBF01B0E0001FC6F060EFD6FB7EC35
:100F60000BF00001FA51FB11D8A4B9EF07F0BBEF69
:100F700007F0BFEF07F01EEC03F089EF07F0A2ECDB
:100F80000EF0F8C0FAF0F9C0FBF0080E0001FC6F9B
:100F9000060EFD6FB7EC0BF00001FA51FB11D8A45F
:100FA000D4EF07F0D6EF07F0DAEF07F050EC0BF0D4
:100FB00089EF07F0A2EC0EF0F8C0FAF0F9C0FBF0F0
:100FC000150E0001FC6F060EFD6FB7EC0BF0000173
:100FD000FA51FB11D8A4EFEF07F0F1EF07F0F5EFAE
:100FE00007F03BEC08F089EF07F0A2EC0EF0F8C038
:100FF000FAF0F9C0FBF0350E0001FC6F060EFD6F34
:10100000B7EC0BF00001FA51FB11D8A40AEF08F07D
:101010000CEF08F010EF08F077EC0DF089EF07F017
:10102000A2EC0EF0F8C0FAF0F9C0FBF0390E0001A6
:10103000FC6F060EFD6FB7EC0BF00001FA51FB11CF
:10104000D8A425EF08F027EF08F089EF07F039EC76
:101050000EF089EF07F089EF07F089EF07F089EFCD
:1010600007F089EF07F089EF07F089EF07F089EFC4
:1010700007F03CEF00F041EC0DF09492030ECA1221
:10108000BA50F00B0C09BA6E9D809E909F80CD8E59
:10109000300ECD12CD92850ECF6EED0ECE6E41ECA0
:1010A0000DF053EF08F0A2EC0EF0F8C07FF1F9C09C
:1010B00080F1270E0101816F060E826F71EC0AF03C
:1010C00001017F518011D8B468EF08F06AEF08F091
:1010D0007EEF08F0CA84CD80000E456E000E446E8F
:1010E000000E496E000E486E000E476E000E466EF2
:1010F00041EC0DF0ADEF08F053EF08F0A2EC0EF06C
:10110000F8C07FF1F9C080F1130E0101816F060E66
:10111000826F71EC0AF001017F518011D8B493EF16
:1011200008F095EF08F053EF08F0CA84CD80000E68
:10113000456E010E446E000E496E000E486E000EA4
:10114000476E000E466E41EC0DF0ADEF08F053EF28
:1011500008F053EF08F053EF08F041EC0DF0B1EF59
:1011600008F0A2EC0EF0F8C07FF1F9C080F1370E64
:101170000101816F060E826F71EC0AF001017F514F
:101180008011D8B4C6EF08F0C8EF08F0B1EF08F04E
:10119000CA94CD90000E496E000E486E000E476E48
:1011A000000E466E41EC0DF0DAEF08F0B1EF08F0FA
:1011B000B1EF08F01200000E106E0EBEE4EF08F062
:1011C000E2EF08F0F0EF08F00E1E0D1E0C1E0B6C87
:1011D000000E0C220D220E22010E106EF0EF08F010
:1011E0000ABEF7EF08F0F5EF08F003EF09F00A1E6A
:1011F000091E081E076C000E082209220A22010E91
:10120000101A03EF09F0000E116E000E126E000EA0
:10121000136E000E146E0B500C100D100E10D8B47F
:1012200014EF09F016EF09F058EF09F0010E0F6EF8
:1012300022EF09F0D8900B360C360D360E360F2AF9
:1012400022EF09F00EAE27EF09F029EF09F01AEFAF
:1012500009F02DEF09F02DEF09F0D8901136123674
:10126000133614360B50075C0C5008580D500958B3
:101270000E500A58D8A03FEF09F041EF09F04CEFAB
:1012800009F00B50075E0C50085A0D50095A0E50C9
:101290000A5A11804CEF09F0D8900E320D320C3200
:1012A0000B320F2E2DEF09F058EF09F058EF09F02F
:1012B0001050D8B45EEF09F060EF09F06AEF09F062
:1012C000141E131E121E116C000E12221322142261
:1012D0006AEF09F011C007F012C008F013C009F05E
:1012E00014C00AF074EF09F01200F8C07BF1F9C0E5
:1012F0007CF1FAC07DF1FBC07EF10001FC07D8A0B3
:10130000FD07FC2906E1FD29D8A489EF09F08BEF40
:1013100009F0A0EF09F0000EF96F000EF86FFAEF78
:1013200009F0FAEF09F0A0EF09F001017B4B7C2BEB
:101330007D4B7E2B0001FC07D8A0FD07A0EF09F034
:101340007BC1D9FF7CC1DAFFDF50D8B4AAEF09F026
:10135000ACEF09F0DCEF09F07DC1F6FF7EC1F7FFCD
:101360000800F5500009D8B4B8EF09F0BAEF09F059
:10137000DCEF09F0FC51FD11D8B4C1EF09F0C3EF67
:1013800009F0DCEF09F07BC1D9FF7CC1DAFFDF5047
:101390000101786F7DC1F6FF7EC1F7FF0800F550AF
:1013A0007819D8B4D6EF09F0D8EF09F095EF09F025
:1013B000DCEF09F0DCEF09F07DC1F6FF7EC1F7FF3D
:1013C0000800F5500101786F796B781F791F784B11
:1013D000792B7BC1D9FF7CC1DAFFDF507A6F7A515C
:1013E00078250001F86F000E010179210001F96FE5
:1013F000FAEF09F01200000E066E04BE04EF0AF0C8
:1014000002EF0AF00CEF0AF0036C041ED8B0042AB5
:10141000010E066E0CEF0AF002BE13EF0AF011EF98
:101420000AF01BEF0AF0016C021ED8B0022A010E6E
:10143000061A1BEF0AF0000E086E000E076E03502E
:101440000410D8B426EF0AF028EF0AF05CEF0AF097
:10145000010E056E32EF0AF0D89003360436052AE5
:1014600032EF0AF004AE37EF0AF039EF0AF02CEF52
:101470000AF03DEF0AF03DEF0AF0D8900736083643
:101480000350015C04500258D8A049EF0AF04BEF1A
:101490000AF052EF0AF00350015E0450025A07802E
:1014A00052EF0AF0D89004320332052E3DEF0AF0D5
:1014B0005CEF0AF05CEF0AF00650D8B462EF0AF075
:1014C00064EF0AF06AEF0AF0076C081ED8B0082A29
:1014D0006AEF0AF007C001F008C002F070EF0AF0EE
:1014E0001200010181518211D8B479EF0AF07BEF2B
:1014F0000AF0DDEF0AF081C1F8F082C1F9F0A6EC44
:101500000DF0F8C0FEF0F9C0FFF0C1EF0AF07FC1A6
:10151000F8F080C1F9F081C1FAF082C1FBF0FEC0A1
:10152000FCF0FFC0FDF075EC09F00001F851F91175
:10153000D8A49DEF0AF09FEF0AF0A7EF0AF07FC151
:101540007FF180C180F1E3EF0AF0E3EF0AF0010ED2
:1015500001017F250001F86F000E010180210001CB
:10156000F96F81C1F6FF82C1F7FF0800F550FA6FED
:10157000FB6BD3EC0DF0F8C07FF1F9C080F1C1EF47
:101580000AF001017F518011D8B4C9EF0AF0CBEF06
:101590000AF0DDEF0AF07FC1D9FF80C1DAFFDF502A
:1015A000D8A4D5EF0AF0D7EF0AF087EF0AF0DDEF05
:1015B0000AF0DDEF0AF0DDEF0AF0000E7F6F000E9B
:1015C000806FE3EF0AF01200000E266E22BEEDEFF0
:1015D0000AF0EBEF0AF0F5EF0AF0216C221ED8B00A
:1015E000222A010E266EF5EF0AF024BEFCEF0AF067
:1015F000FAEF0AF002EF0BF0236C241ED8B0242A75
:1016000002EF0BF023502410D8B409EF0BF00BEFCE
:101610000BF03BEF0BF0010E256E15EF0BF0D890A1
:1016200023362436252A15EF0BF024AE1AEF0BF0E3
:101630001CEF0BF00FEF0BF020EF0BF020EF0BF097
:101640002350215C24502258D8A029EF0BF02BEF17
:101650000BF031EF0BF02350215E2450225A31EF72
:101660000BF0D89024322332252E20EF0BF03BEFE5
:101670000BF03BEF0BF02650D8B441EF0BF043EFEB
:101680000BF049EF0BF0216C221ED8B0222A49EF53
:101690000BF021C021F022C022F04FEF0BF012001E
:1016A00041EC0DF0000E376E010E366E0F0E00018C
:1016B000F96F060EFA6F03EC0CF0BD689494959ADE
:1016C000959C959EB18E300EB112B192A192A082DE
:1016D000A282850EB36EED0EB26E3C503D10D8A4C2
:1016E00074EF0BF076EF0BF07DEF0BF0CA84030E76
:1016F000CA12640ECB6E7DEF0BF0CBCF3AF03B6A93
:10170000B18083EF0BF0A2EC0EF0F8C07FF1F9C0CE
:1017100080F1370E0101816F060E826F71EC0AF0C5
:1017200001017F518011D8B498EF0BF09AEF0BF0C4
:1017300083EF0BF03C503D10D8A4A1EF0BF0A3EFCA
:101740000BF0A4EF0BF0CA948294839A839C839E3F
:10175000B190A192A092A29241EC0DF0B4EF0BF0E7
:1017600083EF0BF083EF0BF041EC0DF01200C0EFB4
:101770000BF00001FA4BFB2BFC4BFD2BC0EF0BF0E9
:10178000FAC0D9FFFBC0DAFFDF500101786FFCC05F
:10179000F6FFFDC0F7FF0800F5507819D8A4D3EF85
:1017A0000BF0D5EF0BF0E5EF0BF0FAC0D9FFFBC063
:1017B000DAFFDF50D8A4DFEF0BF0E1EF0BF0B9EF69
:1017C0000BF0E5EF0BF0E5EF0BF0FCC0F6FFFDC012
:1017D000F7FF0800F550786F796B781F791F784B09
:1017E000792BFAC0D9FFFBC0DAFFDF507A6F7A514C
:1017F00078250001FA6F000E010179210001FB6FCD
:1018000002EF0CF01200000E0001FE6F000EFD6FE3
:1018100028EF0CF00001FD51F925FB6FFE51FA2174
:10182000FC6FFBC0F6FFFCC0F7FFF86A050EF7641B
:1018300003D00800F55005D0F6CFD9FFF7CFDAFF77
:10184000DF505DEC0EF00001FD4BFE2B28EF0CF09D
:10185000FD51F925FB6FFE51FA21FC6FFBC0F6FF2D
:10186000FCC0F7FFF86A050EF76403D00800F550D6
:1018700005D0F6CFD9FFF7CFDAFFDF500009D8A4A3
:1018800044EF0CF046EF0CF00AEF0CF048EF0CF0D0
:101890001200000E076E000E066E6BEF0CF0065085
:1018A0000224046E07500320056E04C0F6FF05C035
:1018B000F7FFF86A050EF76403D00800F55005D06D
:1018C000F6CFD9FFF7CFDAFFDF507CEC0EF0064AF7
:1018D000072A6BEF0CF006500224046E0750032019
:1018E000056E04C0F6FF05C0F7FFF86A050EF76441
:1018F00003D00800F55005D0F6CFD9FFF7CFDAFFB7
:10190000DF500009D8A487EF0CF089EF0CF04FEFFF
:101910000CF08BEF0CF012000A0EF66E1A0EF76E3A
:10192000000EF86E01EE00F010EE78F00900F5CF31
:10193000EEFFE550E150FAE1920EF66E190EF76EE9
:10194000000EF86E00EE80F010EE78F00900F5CF92
:10195000EEFFE550E150FAE1660EF66E1D0EF76EF1
:10196000000EF86E00EE56F010EE04F00900F5CF10
:10197000EEFFE550E150FAE100EE2CF02A0EEE6A9F
:10198000E806FDE15A905A92000EF86E000185EFCC
:1019900007F00F03930293020000BA024B024B02BE
:1019A00000000B024B029302BA020F030F030F0356
:1019B00000000F03930293020000BA024B024B0295
:1019C00000000B0293020F030F0393020000490172
:1019D0008801B801B8010000B8018D110B020B029B
:1019E00000000B024B028D118D110000B80188011F
:1019F000B80100000000000000000000000000002E
:101A000000000000000000000000010001000100D3
:101A100001000100010001000100010001000100BE
:101A200001000100010001000100010001000100AE
:101A3000010001000100010001000100010001009E
:101A4000010001000100010001000200010001008D
:101A5000010001000200010001000100010002007C
:101A6000010001000100010003000100000000006E
:101A70000000000000000000000000000000000066
:101A80000000000E0001F96F000EF86FF9BF52EF71
:101A90000DF0F95109E10A0EF85DD8A052EF0DF0F2
:101AA00054EF0DF058EF0DF072EF0DF072EF0DF0F6
:101AB0004C0EF825D96E000EF921DA6E000EDF6E9D
:101AC000F84BF92BF9BF6EEF0DF0F95109E10A0E51
:101AD000F85DD8A06EEF0DF070EF0DF058EF0DF03F
:101AE00072EF0DF0000E4B6E000E4A6E120041ECCC
:101AF0000DF09492030ECA12D3508F0B6009D36E6F
:101B0000BA50F00B0C09BA6ED08E9D809E909F80CB
:101B1000F28ECD8E300ECD12CD92CA84CD80000EC5
:101B2000456E000E446E000E496E000E486E000EAB
:101B3000476E000E466E000E3D6E010E3C6E850E29
:101B4000CF6EED0ECE6E41EC0DF01200F8C0FCF041
:101B5000F9C0FDF0B1EF0DF00001F84BF92BB1EF3A
:101B60000DF0F8C0F6FFF9C0F7FF0800F5500009C6
:101B7000D8A4BDEF0DF0BFEF0DF0ACEF0DF0C1EF4D
:101B80000DF0FCC0FAF0FDC0FBF00001FA1FFB1FD6
:101B9000FA4BFB2BF851FA25F86FF951FB21F96F3D
:101BA000D2EF0DF01200F8C0D9FFF9C0DAFF000142
:101BB000FA51DE18D8A4DFEF0DF0E1EF0DF0E9EFF8
:101BC0000DF0F8C0F8F0F9C0F9F0FFEF0DF0FFEFFD
:101BD0000DF0F8C0D9FFF9C0DAFFF84BF92BDF5050
:101BE000D8A4F5EF0DF0F7EF0DF0D3EF0DF0F9EF0E
:101BF0000DF0000EF86F000EF96FFFEF0DF0120000
:101C00004C0E4A24D96E000E4B20DA6EAECFDFFFA9
:101C10004C0E4A24D96E000E4B20DA6EDF506DEC6C
:101C20000EF04A4A4B2A4AC021F04BC022F0000E67
:101C3000246E0A0E236EE4EC0AF021C04AF022C0A2
:101C40004BF023EF0EF0120001500302F3CF05F02A
:101C5000F4CF06F001500402F350062602500302AE
:101C6000F350062605C001F006C002F038EF0EF072
:101C7000120041EC0DF0CA94CD90000E496E000E9A
:101C8000486E000E476E000E466E000E3D6E000E52
:101C90003C6E41EC0DF01200948C948EAC98B8968A
:101CA000AC84330EAF6EAB8E9E889E9AAC8AAB88A6
:101CB0009D989F989D8A9F9A12000001F86F61EF8E
:101CC0000EF0ACA266EF0EF068EF0EF061EF0EF0D2
:101CD0006AEF0EF0F8C0ADFF1200216E70EF0EF04B
:101CE000ACA275EF0EF077EF0EF070EF0EF079EF1B
:101CF0000EF021C0ADFF1200016E7FEF0EF0ACA21E
:101D000084EF0EF086EF0EF07FEF0EF088EF0EF00E
:101D100001C0ADFF120092680E0EC16EC08EC08071
:101D2000C082C084000EC46E000EC36E1200AAEC06
:101D30000EF0AFEC0EF04CEC0EF0B5EC0EF08BECC0
:101D40000EF012004C0E0001F86F000EF96FA9EFB3
:101D50000EF01200D3508F0B6009D36E1200D08E9C
:0C1D6000F28EF28C12001E001300120024
:020000040020DA
:08000000FFFFFFFFFFFFFFFF00
:020000040030CA
:0E000000FF881F00FF8381FF0FC00FE00F403D
:00000001FF
