:020000040000FA
:0400000007EF00F016
:10000800038209ED00F086EF00F006009DA20FEFD5
:1000180000F011EF00F01CEF00F09EA216EF00F0C8
:1000280018EF00F01CEF00F0014A022A1CEF00F064
:10003800080E01180210D8A424EF00F026EF00F0F3
:100048002AEF00F096EC00F02AEF00F0100E0118ED
:100058000210D8A432EF00F034EF00F038EF00F0CF
:1000680094EC00F038EF00F0180E01180210D8A434
:1000780040EF00F042EF00F046EF00F092EC00F0A5
:1000880046EF00F0200E01180210D8A44EEF00F041
:1000980050EF00F054EF00F090EC00F054EF00F057
:1000A800280E01180210D8A45CEF00F05EEF00F0F3
:1000B80062EF00F08DEC00F062EF00F02C0E0118FA
:1000C8000210D8A46AEF00F06CEF00F070EF00F0B7
:1000D800000E026E070E016E000ECC6E9E92039209
:1000E8001100000E956E000E8C6E7F0ECA6ED08EBB
:1000F8009D829E929F82F28EF30ECB6E82EF00F06D
:1001080007EF00F0026A016A03900392000175EF9D
:1001180000F0000E8C6E12008C8612008C84120087
:080128008C8212008C80120091
:020000040020DA
:08000000FFFFFFFFFFFFFFFF00
:020000040030CA
:0E000000FF081F1EFF8181FF0FC00FE00F40A1
:00000001FF
