:020000040000FA
:0400000010EF00F00D
:020004000000FA
:10002000816A0101936A00018188819800000000C3
:1000300000000000000081888192D00E0C6E0D6ED1
:100040000F0E106E116E126E136E146E156E166E0C
:1000500081920000000032EC01F032EC01F000006F
:10006000000000008196000081860C2E28EF00F031
:10007000000081928182818281828182818281924B
:100080008182818281828182818281928192818238
:100090008182818281828192818281828182818238
:1000A000818281928192819600008186102E39EFA3
:1000B00000F00000819281928192818281928192EE
:1000C00081928182819281928192819281928182B8
:1000D0008192819281928192819281928192818298
:1000E0008192819281928192819600008186112E67
:1000F0005AEF00F000008192819281928182819278
:100100008192819281828192819281928192819267
:100110008182819281928192819281928192819257
:100120008182819281928192819281960000818662
:10013000122E7BEF00F000008192819281928182E9
:100140008192819281928182818281828182818267
:100150008192818281928192819281928192819217
:100160008192818281928192819281928196000016
:100170008186132E9CEF00F0000081928192819283
:1001800081828192819281928182819281928192F7
:1001900081928192818281928192819281928192D7
:1001A00081928192818281928192819281928196C3
:1001B00000008186142EBDEF00F000008192819234
:1001C00081928182819281928192818281928192B7
:1001D0008192819281928182819281928192819297
:1001E0008192819281928182819281928192819287
:1001F000819600008186152EDEEF00F000008192CE
:100200008192819281828192819281928182818286
:1002100081828182818281928192818281828182A6
:100220008182819281928192818281928192819256
:100230008192819600008186162EFFEF00F000006B
:1002400081920000000032EC01F032EC01F000007D
:10025000000000008196000081860D2E20EF01F045
:1002600015EF00F00000000000000000000000009A
:0202700012007A
:020000040030CA
:0100010000FE
:010002001EDF
:010003001EDE
:010006008178
:00000001FF
