:020000040000FA
:04000000C1EF3FF01D
:107F82000001C4EF3FF0000E026E0C0E016E000EF7
:107F9200046E0A0E036ED6EC3FF001C001F002C07F
:107FA20002F0D2EF3FF000EF00F001C08BFF03C000
:107FB2008CFF070E896EF36AF46AE86A8CBE12D0EF
:107FC20016D0892EFBD7F3CF01F0F4CF02F08CAE9E
:107FD20012008B50F326E86AF422F3CF01F0F4CFBB
:107FE20002F012008B50F326E86AF422E9D78C36AD
:0E7FF200F446F3BEF422F346F390E86AE2D7B9
:020000040020DA
:08000000FFFFFFFFFFFFFFFF00
:020000040030CA
:0E000000FF071F1FFF8385FF0FC00FE00F409B
:00000001FF
