:020000040000FA
:0400000006EF00F017
:020004000000FA
:08000800DEEF00F0816A936A4B
:100010008A6A938093828C6A836A956AF46AF36A27
:10002000D38CD38AD398F28EF288F292F19CF19A13
:10003000F086F0900F0EC16E01900290110EE8CF85
:1000400020F0110EE8CF21F0220EE8CF10F0090EBB
:10005000006E116A306AE86A11C0E8FF215DF36E34
:1000600010C0E8FF2059F46ED8A00FD0F4CF20F0D4
:10007000F3CF21F0304630801142119E10B0118E26
:100080001042109E002EE8D70AD030463090114220
:10009000119E10B0118E1042109E002EDDD701B0BF
:1000A00003D802B046D8FBD7B40E156E640E146E9A
:1000B0000000000000000000142EFAD7152EF6D71D
:1000C00030BE8C8630BC8C8430BA8C8230B88C8048
:1000D000B40E156EC80E146E000000000000000083
:1000E000142EFAD7152EF6D78C6AB40E156E640E40
:1000F000146E0000000000000000142EFAD7152E28
:10010000F6D730B68C8630B48C8430B28C8230B066
:100110008C80B40E156EC80E146E00000000000036
:100120000000142EFAD7152EF6D78C6AF2920190A1
:100130001200B40E156E640E146E00000000000074
:100140000000142EFAD7152EF6D721BE8C8621BCBE
:100150008C8421BA8C8221B88C80B40E156EC80EA6
:10016000146E0000000000000000142EFAD7152EB7
:10017000F6D78C6AB40E156E640E146E0000000083
:1001800000000000142EFAD7152EF6D721B68C8663
:1001900021B48C8421B28C8221B08C80B40E156E77
:1001A000C80E146E0000000000000000142EFAD7E4
:1001B000152EF6D78C6AF09002901200F2B20180F0
:0401C000F0B0028019
:020000040030CA
:0100010008F6
:010002001FDE
:010003001EDE
:010005008179
:010006008178
:010008000FE8
:01000900C036
:01000A000FE6
:01000B00E014
:01000C000FE4
:01000D0040B2
:00000001FF
