:020000040000FA
:040000003CEF00F0E1
:06000800738277ED1EF08B
:100018007380D8CF07F0E8CF08F0E0CF09F0D9CF48
:100028000AF0DACF0BF09EAA1CEF00F01EEF00F0EA
:1000380030EF00F0ABA223EF00F025EF00F02AEF3D
:1000480000F0AB9800F0AB882AEF00F0D9EC1DF077
:1000580030EF00F030EF00F00BC0DAFF0AC0D9FF34
:1000680009C0E0FF08C0E8FF07C0D8FF7390100080
:040078005EEF1EF029
:100600000048656C6C6F2000576F726C6421006D40
:100610006F646531006D6F64653200636C65617293
:1006200000494E46004E414E00696E66006E616E96
:1006300000256C6600560000000E00019B6F000E46
:100640009A6F41C0ACF042C0ADF043C0AEF044C0C0
:10065000AFF0AFBF30EF03F02EEF03F048EF03F041
:10066000000E9B6F010E9A6FACC00CF0ADC00DF088
:10067000AEC00EF0AFC00FF020EC1EF00CC0ACF01E
:100680000DC0ADF00EC0AEF00FC0AFF048EF03F0FC
:10069000000E0001B36F000EB26F6BC09FF06CC014
:1006A000A0F09A519B11D8A458EF03F05AEF03F031
:1006B00063EF03F06FA45FEF03F061EF03F087EFE8
:1006C00003F063EF03F09A519B11D8A46AEF03F093
:1006D0006CEF03F072EF03F0000E856F2B0E846F4A
:1006E00078EF03F0000E856F2D0E846F78EF03F026
:1006F000000EB225D96E010EB321DA6E84C0DFFF81
:10070000B24BB32B9F07D8A0A00787EF03F0ACC074
:100710000CF0ADC00DF0AEC00EF0AFC00FF094EC19
:1007200017F00C040D10D8A498EF03F09AEF03F023
:1007300004EF04F0BF0E466EFF0E476E4550486E44
:10074000496A465048264750492249500AE11A0E44
:10075000485CD8A0AEEF03F0B1EF03F0010EB2EFAA
:1007600003F0000E0001866F876BC2EF03F045C0F7
:100770000CF00D6A40EC1EF00CC086F00DC087F046
:10078000C2EF03F0000186518711D8B4CAEF03F01D
:10079000CCEF03F0DAEF03F0000EB2250C6E010E81
:1007A000B3210D6E210E0E6E060E0F6ECEEC1CF0F8
:1007B000E9EF03F0000E0001B2250C6E010EB3212B
:1007C0000D6E290E0E6E060E0F6ECEEC1CF0E9EFCC
:1007D00003F00001FD0E9F27FF0EA0233FC01CF079
:1007E00040C01DF0000E1E6E010E1F6E9FC020F057
:1007F000A0C021F0C2EC1AF01CC03FF01DC040F0B8
:10080000ADEF09F0ADEF09F0ACC00CF0ADC00DF0EC
:10081000AEC00EF0AFC00FF094EC17F00C500D10FE
:10082000D8A415EF04F017EF04F081EF04F0BF0E29
:10083000466EFF0E476E4550486E496A4650482640
:100840004750492249500AE11A0E485CD8A02BEFC4
:1008500004F02EEF04F0010E2FEF04F0000E000163
:10086000886F896B3FEF04F045C00CF00D6A40ECD7
:100870001EF00CC088F00DC089F03FEF04F00001BD
:1008800088518911D8B447EF04F049EF04F057EFCD
:1008900004F0000EB2250C6E010EB3210D6E250E74
:1008A0000E6E060E0F6ECEEC1CF066EF04F0000E1E
:1008B0000001B2250C6E010EB3210D6E2D0E0E6ED1
:1008C000060E0F6ECEEC1CF066EF04F00001FD0E7C
:1008D0009F27FF0EA0233FC01CF040C01DF0000E5C
:1008E0001E6E010E1F6E9FC020F0A0C021F0C2EC52
:1008F0001AF01CC03FF01DC040F0ADEF09F0ADEFA5
:1009000009F0000E0001B46F000EB56F800EB66FD7
:100910003F0EB76F000EB16F000EB06FACC00CF0A1
:10092000ADC00DF0AEC00EF0AFC00FF0000E106EF7
:10093000000E116E000E126E000E136E2BEC1BF0EB
:10094000D8B0A5EF04F0A7EF04F036EF05F0CAEF3A
:1009500004F0CAEF04F0B4C01AF0B5C01BF0B6C082
:100960001CF0B7C01DF0000E1E6E000E1F6E200E94
:10097000206E410E216E70EC0CF01AC0B4F01BC05A
:10098000B5F01CC0B6F01DC0B7F00001B04BB12BE4
:10099000CAEF04F0ACC033F0ADC034F0AEC035F0F7
:1009A000AFC036F0000E1E6E000E1F6E200E206EC1
:1009B000410E216EB4C01AF0B5C01BF0B6C01CF0D9
:1009C000B7C01DF070EC0CF01AC037F01BC038F047
:1009D0001CC039F01DC03AF037EC16F0D8B0F3EF78
:1009E00004F0F5EF04F0ABEF04F019EF05F019EFA8
:1009F00005F0B4C00CF0B5C00DF0B6C00EF0B7C035
:100A00000FF0000E106E000E116E200E126E410ED1
:100A1000136EA7EC0EF00CC0B4F00DC0B5F00EC014
:100A2000B6F00FC0B7F00001B007D8A0B10719EFBA
:100A300005F0ACC033F0ADC034F0AEC035F0AFC09F
:100A400036F0B4C037F0B5C038F0B6C039F0B7C032
:100A50003AF037EC16F0D8A030EF05F032EF05F0A1
:100A6000F9EF04F036EF05F036EF05F045C012F06F
:100A7000136A24EC1CF012500001A16FA1C09EF07B
:100A8000670EA119D8A447EF05F049EF05F073EF01
:100A900005F06D506E10D8A450EF05F052EF05F040
:100AA00058EF05F0000E6E6E010E6D6E58EF05F0FA
:100AB0006EBE65EF05F06E5006E16D04D8B063EFD1
:100AC00005F065EF05F06BEF05F0000E9D6F060E6B
:100AD0009C6F88EF05F06DC09CF06EC09DF088EFB4
:100AE00005F088EF05F06EBE78EF05F07AEF05F0BF
:100AF00080EF05F06DC09CF06EC09DF088EF05F0B2
:100B0000000E9D6F060E9C6F88EF05F088EF05F0D4
:100B1000670EA119D8A48FEF05F091EF05F0C4EF8F
:100B200005F0B1AF9FEF05F0FC0EB05DFF0EB159BF
:100B3000D8A09DEF05F09FEF05F0BEEF05F0FF0E8A
:100B4000466EFF0E476E9CC048F09DC049F046506F
:100B5000482647504922B051485C4950800A4A6EA5
:100B6000B151800A4A58D8A0B8EF05F0BAEF05F0A5
:100B7000BEEF05F0660E9E6FC4EF05F0650E9E6F2A
:100B8000C4EF05F0C4EF05F09CC094F09DC095F053
:100B9000670EA119D8A4CFEF05F0D1EF05F0E3EF70
:100BA00005F0660E9E19D8A4D8EF05F0DAEF05F02F
:100BB000E7EF05F0B1BFE1EF05F0DFEF05F0E7EF9C
:100BC00005F0E3EF05F0944B952BE7EF05F0660E8B
:100BD0009E19D8A4EEEF05F0F0EF05F016EF06F041
:100BE000B1BFF7EF05F0F5EF05F005EF06F0000EE9
:100BF000B46F000EB56F800EB66F3F0EB76F000E6C
:100C0000B16F000EB06F05EF06F0670EA119D8B4F2
:100C10000CEF06F00EEF06F016EF06F0B051942739
:100C2000B151952316EF06F016EF06F0000EAB6FEC
:100C3000000EAA6FACC0A2F0ADC0A3F0AEC0A4F08D
:100C4000AFC0A5F0B4C080F0B5C081F0B6C082F0EE
:100C5000B7C083F0A9EF06F0A2C00CF0A3C00DF05E
:100C6000A4C00EF0A5C00FF0B4C010F0B5C011F0D4
:100C7000B6C012F0B7C013F0A7EC0EF00CC025F010
:100C80000DC026F00EC027F00FC028F091EC12F036
:100C900025C0A6F026C0A7F027C0A8F028C0A9F05C
:100CA000A6C00CF0A7C00DF0A8C00EF0A9C00FF0B0
:100CB000EBEC16F00CC098F00DC099F0A2C033F028
:100CC000A3C034F0A4C035F0A5C036F0B4C01EF007
:100CD000B5C01FF0B6C020F0B7C021F0A6C01AF012
:100CE000A7C01BF0A8C01CF0A9C01DF070EC0CF050
:100CF0001AC037F01BC038F01CC039F01DC03AF0E4
:100D0000B4EC1DF033C0A2F034C0A3F035C0A4F0A1
:100D100036C0A5F0B4C00CF0B5C00DF0B6C00EF0F2
:100D2000B7C00FF0000E106E000E116E200E126E86
:100D3000410E136EA7EC0EF00CC0B4F00DC0B5F070
:100D40000EC0B6F00FC0B7F00001AA4BAB2BA9EF55
:100D500006F09451AA5DAB51800A466E9551800A07
:100D60004658D8A0B6EF06F0B8EF06F02CEF06F024
:100D7000BAEF06F0B4C01AF0B5C01BF0B6C01CF054
:100D8000B7C01DF0000E1E6E000E1F6EA00E206E6E
:100D9000400E216E70EC0CF01AC0A6F01BC0A7F03C
:100DA0001CC0A8F01DC0A9F0A2C033F0A3C034F04D
:100DB000A4C035F0A5C036F0A6C037F0A7C038F003
:100DC000A8C039F0A9C03AF037EC16F0D8B0EBEF74
:100DD00006F0EDEF06F0F8EF06F0000E0001A66F4A
:100DE000000EA76F000EA86F000EA96F25EF07F089
:100DF000A2C00CF0A3C00DF0A4C00EF0A5C00FF06F
:100E0000A6C010F0A7C011F0A8C012F0A9C013F03E
:100E10002BEC1BF0D8A00FEF07F011EF07F025EF38
:100E200007F0000198B117EF07F019EF07F025EF71
:100E300007F0000EA66F000EA76F000EA86F000E41
:100E4000A96F25EF07F025EF07F0ACC00CF0ADC09F
:100E50000DF0AEC00EF0AFC00FF0A6C010F0A7C0EE
:100E600011F0A8C012F0A9C013F0AEEC09F00CC04C
:100E7000A2F00DC0A3F00EC0A4F00FC0A5F080C07A
:100E8000B4F081C0B5F082C0B6F083C0B7F0650E93
:100E900000019E19D8B44FEF07F051EF07F057EF5C
:100EA00007F0B0C096F0B1C097F05BEF07F0000E0E
:100EB000976F000E966F000E936F000E926F000EEC
:100EC000916F000E906F000EAB6F000EAA6F61EF76
:100ED00008F0A2C00CF0A3C00DF0A4C00EF0A5C095
:100EE0000FF0B4C010F0B5C011F0B6C012F0B7C02A
:100EF00013F0A7EC0EF00CC025F00DC026F00EC0CC
:100F000027F00FC028F091EC12F025C0A6F026C003
:100F1000A7F027C0A8F028C0A9F0A6C00CF0A7C071
:100F20000DF0A8C00EF0A9C00FF0EBEC16F00CC04D
:100F300098F00DC099F06FB8A0EF07F0A2EF07F09E
:100F4000C0EF07F0000198519911D8A4AAEF07F05B
:100F5000ACEF07F0C0EF07F0670EA119D8A4B3EF0C
:100F600007F0B5EF07F0C0EF07F097BFBCEF07F051
:100F7000BAEF07F0C0EF07F0904B912B13EF08F09A
:100F8000000192519311D8A4C8EF07F0CAEF07F0FF
:100F9000F8EF07F097BFD1EF07F0CFEF07F0F8EFCA
:100FA00007F0000EB225D96E010EB321DA6E2E0EB7
:100FB000DF6EB24BB32B9F07D8A0A007000E936F34
:100FC000010E926FF8EF07F0F8EF07F0000EB22570
:100FD000D96E010EB321DA6E300EDF6EB24BB32B39
:100FE0009F07D8A0A0079007D8A09107F8EF07F0B7
:100FF00090519111D8A4FFEF07F001EF08F0E6EF50
:1010000007F003EF08F0000EB225D96E010EB321F0
:10101000DA6E9851300FDF6EB24BB32B9F07D8A01A
:10102000A00713EF08F0A2C033F0A3C034F0A4C0AF
:1010300035F0A5C036F0B4C01EF0B5C01FF0B6C084
:1010400020F0B7C021F0A6C01AF0A7C01BF0A8C0BE
:101050001CF0A9C01DF070EC0CF01AC037F01BC0DA
:1010600038F01CC039F01DC03AF0B4EC1DF033C0AC
:10107000A2F034C0A3F035C0A4F036C0A5F0B4C0CF
:101080000CF0B5C00DF0B6C00EF0B7C00FF0000EFA
:10109000106E000E116E200E126E410E136EA7EC34
:1010A0000EF00CC0B4F00DC0B5F00EC0B6F00FC01D
:1010B000B7F000019607D8A09707AA4BAB2B61EFBA
:1010C00008F09451AA5DAB51800A466E9551800A92
:1010D0004658D8B06EEF08F070EF08F082EF08F0D5
:1010E000B3BF7CEF08F0B35109E14B0EB25DD8A05D
:1010F0007CEF08F07EEF08F069EF07F082EF08F070
:1011000082EF08F092519311D8A489EF08F08BEF89
:1011100008F09EEF08F06FA890EF08F092EF08F04B
:101120009EEF08F0000EB225D96E010EB321DA6EE3
:101130002E0EDF6EB24BB32B9EEF08F0000EB225E1
:10114000D96E010EB321DA6E000EDF6E650E9E19A8
:10115000D8A4ADEF08F0AFEF08F099EF09F0000E5A
:10116000AB6F4F0EAA6F000EAA25D96E010EAB21F0
:10117000DA6E000EDF6E000E9B6F000E9A6FB1BF2D
:10118000C6EF08F0C4EF08F0D0EF08F0000E9B6F38
:10119000010E9A6FB06DB11FD8B0B12BD0EF08F02F
:1011A000000E9D6F020E9C6F03EF09F0AA07D8A0F6
:1011B000AB07000EAA25D96E010EAB21DA6EB0C0C6
:1011C0000CF0B1C00DF0000E0F6E0A0E0E6EEAECC0
:1011D00019F00C50300FDF6EB0C00CF0B1C00DF044
:1011E000000E0F6E0A0E0E6E99EC18F00CC0B0F0E7
:1011F0000DC0B1F000019C07D8A09D079F07D8A0A3
:10120000A00703EF09F0B051B111D8A40AEF09F01B
:101210000CEF09F0D6EF08F09DBF19EF09F09D51D2
:1012200006E19C05D8B017EF09F019EF09F0D6EFE9
:1012300008F01BEF09F0AA07D8A0AB079A519B1141
:10124000D8A425EF09F027EF09F02DEF09F0000EE3
:101250008B6F2B0E8A6F33EF09F0000E8B6F2D0E04
:101260008A6F33EF09F0000EAA25D96E010EAB216B
:10127000DA6E8AC0DFFF9F07D8A0A007AA07D8A010
:10128000AB07BF0E466EFF0E476E4550486E496A6B
:10129000465048264750492249500AE11A0E485CF8
:1012A000D8A055EF09F058EF09F0010E59EF09F0F9
:1012B000000E8E6F8F6B68EF09F045C00CF00D6A61
:1012C00040EC1EF00CC08EF00DC08FF068EF09F0FE
:1012D00000018E518F11D8A470EF09F072EF09F060
:1012E00078EF09F0000E8D6F650E8C6F7EEF09F0C0
:1012F000000E8D6F450E8C6F7EEF09F0000EAA2553
:10130000D96E010EAB21DA6E8CC0DFFF9F07D8A02B
:10131000A007000EB2250C6E010EB3210D6E000E5B
:10132000AA250E6E010EAB210F6ECEEC1CF099EFCC
:1013300009F03FC01CF040C01DF0000E1E6E010EF3
:101340001F6E9FC020F0A0C021F0C2EC1AF01CC09C
:101350003FF01DC040F0ADEF09F012000F50800BC0
:101360001C6E0F500F241E6E0EAEB9EF09F0BBEFCE
:1013700009F0BEEF09F01E80BEEF09F01E50D8B490
:10138000C4EF09F0C6EF09F0DDEF09F01E28D8A47C
:10139000CCEF09F0CEEF09F0D8EF09F0000E0C6E9B
:1013A000000E0D6E000E0E6E000E0F6ED8EF09F0DF
:1013B0000E8E000E0F6EE7EF09F0000E0C6E000EA1
:1013C0000D6E000E0E6E000E0F6EE7EF09F013505B
:1013D000800B1D6E1C501D18D8B4F1EF09F0F3EF0F
:1013E00009F0F6EF09F01C8CF6EF09F01350132406
:1013F0001D6E12AEFEEF09F000EF0AF003EF0AF0E7
:101400001D8003EF0AF01D50D8B409EF0AF00BEF6E
:101410000AF022EF0AF01D28D8A411EF0AF013EF0A
:101420000AF01DEF0AF0000E106E000E116E000E95
:10143000126E000E136E1DEF0AF0128E000E136E68
:101440002CEF0AF0000E106E000E116E000E126EE0
:10145000000E136E2CEF0AF01E501D5CD8B033EF57
:101460000AF035EF0AF060EF0AF01CAC3AEF0AF030
:101470003CEF0AF040EF0AF0800E1C1A40EF0AF031
:101480001EC01FF01DC01EF01FC01DF00CC01FF0BD
:1014900010C00CF01FC010F00DC01FF011C00DF0F7
:1014A0001FC011F00EC01FF012C00EF01FC012F0CE
:1014B0000FC01FF013C00FF01FC013F060EF0AF051
:1014C000000E1F6E1E50146E156A141E151E144A4F
:1014D000152A1D50166E176A14501626155017221D
:1014E00017BE7CEF0AF0175009E11A0E165CD8A05F
:1014F0007CEF0AF07EEF0AF0BBEF0AF00C500D1003
:101500000E100F10D8A487EF0AF08AEF0AF0010E30
:101510008BEF0AF0000E1F6E000E0C6E000E0D6EAB
:10152000000E0E6E000E0F6E1DC01EF0C6EF0AF00C
:10153000BBEF0AF01FA09FEF0AF0A1EF0AF0A7EFA0
:101540000AF0D8901F3001091F6EABEF0AF0D89057
:101550001F32ABEF0AF00CA0B0EF0AF0B2EF0AF0C6
:10156000B5EF0AF01F8EB5EF0AF00F340F320E32CE
:101570000D320C321E2A1D501E5CD8A0C2EF0AF09C
:10158000C4EF0AF09AEF0AF0C6EF0AF01CBCCBEFEA
:101590000AF0CDEF0AF015EF0BF01E50D8A4D3EFF0
:1015A0000AF0D5EF0AF0E1EF0AF0000E0C6E000E23
:1015B0000D6E000E0E6E000E0F6E6FEF0CF06FEFE3
:1015C0000CF010500C2611500D2212500E22135008
:1015D0000F220FA0EEEF0AF0F0EF0AF0C5EF0BF0CC
:1015E0001FA0F5EF0AF0F7EF0AF0FDEF0AF0D89030
:1015F0001F3001091F6E01EF0BF0D8901F3201EF71
:101600000BF00CA006EF0BF008EF0BF00BEF0BF05C
:101610001F8E0BEF0BF00F340F320E320D320C32E7
:101620001E2AC5EF0BF0C5EF0BF010500C5C1150EB
:101630000D5812500E580F50800A146E1350800A25
:101640001458D8B026EF0BF028EF0BF066EF0BF034
:101650000CC014F00DC015F00EC016F00FC017F03E
:10166000141E151E161E171E142A000E15221622F1
:10167000172210501424186E11501520196E125094
:1016800016201A6E135017201B6EFF0E18240C6EB6
:10169000FF0E19200D6EFF0E1A200E6EFF0E1B207E
:1016A0000F6E800E1C1A1F6C1F50D8A45AEF0BF03F
:1016B0005CEF0BF06EEF0BF0010E0C26000E0D220E
:1016C0000E220F226EEF0BF06EEF0BF010500C5E3F
:1016D00011500D5A12500E5A13500F5A0C500D1033
:1016E0000E100F10D8A477EF0BF079EF0BF0BAEFD4
:1016F0000BF01F50D8A47FEF0BF081EF0BF0BAEF87
:101700000BF0000E0C6E000E0D6E000E0E6E000E35
:101710000F6E6FEF0CF06FEF0CF0BAEF0BF0D8908C
:101720000C360D360E360F361FAE99EF0BF09BEFD1
:101730000BF09EEF0BF00C809EEF0BF01FA0A3EFC1
:101740000BF0A5EF0BF0A9EF0BF0D8801F36ADEF33
:101750000BF0D8901F36ADEF0BF01E50D8B4B3EF9E
:101760000BF0B5EF0BF0BAEF0BF01E06BAEF0BF073
:10177000BAEF0BF00EAEBFEF0BF0C1EF0BF08FEF37
:101780000BF0C5EF0BF0C5EF0BF0000E1D6E1FAE9A
:10179000CCEF0BF0CEEF0BF0EAEF0BF01FC014F024
:1017A0007F0E1416D8B4D7EF0BF0D9EF0BF0DDEFA6
:1017B0000BF0010E1D6EEAEF0BF00CA0E2EF0BF048
:1017C000E4EF0BF0EAEF0BF0010E1D6EEAEF0BF009
:1017D000EAEF0BF01D50D8B4F0EF0BF0F2EF0BF086
:1017E00023EF0CF0010E0C26000E0D220E220F220C
:1017F0000FA0FDEF0BF0FFEF0BF023EF0CF00CC090
:1018000014F00DC015F00EC016F00FC017F017340D
:10181000173216321532143214C00CF015C00DF008
:1018200016C00EF017C00FF01E28D8B41AEF0CF037
:101830001CEF0CF023EF0CF01E2A23EF0CF023EF2B
:101840000CF023EF0CF01E28D8B429EF0CF02BEF8E
:101850000CF035EF0CF01E50D8A431EF0CF033EF44
:101860000CF04BEF0CF035EF0CF0000E0C6E000E90
:101870000D6E000E0E6E000E0F6E1E50D8A443EFBC
:101880000CF045EF0CF04BEF0CF0000E1C6E4BEF24
:101890000CF04BEF0CF01EA050EF0CF052EF0CF0E0
:1018A00055EF0CF00E8E58EF0CF00E9E58EF0CF02A
:1018B000D8901E300F6E1CAE60EF0CF062EF0CF093
:1018C00065EF0CF00F8E65EF0CF00CC00CF00DC046
:1018D0000DF00EC00EF00FC00FF06FEF0CF0120005
:1018E0001D50800B266E1D501D242C6E1CAE7BEFF0
:1018F0000CF07DEF0CF080EF0CF02C8080EF0CF002
:101900002C50D8B486EF0CF088EF0CF09DEF0CF063
:101910002C28D8A48EEF0CF090EF0CF09AEF0CF07E
:10192000000E1A6E000E1B6E000E1C6E000E1D6E59
:101930009AEF0CF01C8EA7EF0CF0000E1A6E000E42
:101940001B6E000E1C6E000E1D6EA7EF0CF02150DA
:10195000800B261A21502124276E20AEB2EF0CF006
:10196000B4EF0CF0B7EF0CF02780B7EF0CF0275076
:10197000D8B4BDEF0CF0BFEF0CF0D4EF0CF027287B
:10198000D8A4C5EF0CF0C7EF0CF0D1EF0CF0000EAF
:101990001E6E000E1F6E000E206E000E216ED1EF27
:1019A0000CF0208EDCEF0CF0000E1E6E000E1F6E91
:1019B000000E206E000E216E2750D8B4E2EF0CF01E
:1019C000E4EF0CF0EEEF0CF02C50D8A4EAEF0CF0A2
:1019D000ECEF0CF0FAEF0CF0EEEF0CF0000E1A6EDC
:1019E000000E1B6E000E1C6E000E1D6EA6EF0EF09C
:1019F000A6EF0EF020501A02F3CF31F0F4CF32F000
:101A00003150286E296A2A6A2B6A32502D6E2E6A4E
:101A10002F6A306A1F501B02F3CF31F0F4CF32F03F
:101A200031502826000E29222A222B2232502D2620
:101A3000000E2E222F2230221E501C02F3CF31F036
:101A4000F4CF32F031502826000E29222A222B22F0
:101A500032502D26000E2E222F2230222AC02BF0AB
:101A600029C02AF028C029F0286A1E501B02F3CF93
:101A700031F0F4CF32F03150282632502922000EB6
:101A80002A22000E2B221F501A02F3CF31F0F4CF7E
:101A900032F03150282632502922000E2A22000E20
:101AA0002B222AC02BF029C02AF028C029F0286A4E
:101AB0001E501A02F3CF31F0F4CF32F03150282605
:101AC00032502922000E2A22000E2B2220501B0207
:101AD000F3CF31F0F4CF32F031502D2632502E2298
:101AE000000E2F22000E30221F501C02F3CF31F0C7
:101AF000F4CF32F031502D2632502E22000E2F22FC
:101B0000000E302220501C02F3CF31F0F4CF32F01F
:101B10003150226E3250236E246A256A24C025F08B
:101B200023C024F022C023F0226A22502D26235005
:101B30002E2224502F222550302228C022F029C0E6
:101B400023F02AC024F02BC025F0190EADEF0DF0C4
:101B5000D8902532243223322232E82EA8EF0DF01D
:101B600022502D2623502E2224502F222550302261
:101B70002AC02BF029C02AF028C029F0286A275053
:101B80002CC022F0236A2226000E2322820E222459
:101B9000316EFF0E2320326EE5EF0DF0D8902D361A
:101BA0002E362F3630362BAED8EF0DF0DAEF0DF0A3
:101BB000DBEF0DF02D80D890283629362A362B36CB
:101BC0003106D8A03206E5EF0DF02FAEEAEF0DF0AA
:101BD000ECEF0DF0CEEF0DF0EEEF0DF0000E276EF6
:101BE0002BAEF5EF0DF0F7EF0DF01FEF0EF0FF0E3F
:101BF0002814226EFF0E2914236EFF0E2A14246E61
:101C00007F0E2B14256E2250231024102510D8B4DB
:101C10000CEF0EF00EEF0EF012EF0EF0010E276E2D
:101C20001FEF0EF02DA017EF0EF019EF0EF01FEFC3
:101C30000EF0010E276E1FEF0EF01FEF0EF0275073
:101C4000D8B425EF0EF027EF0EF04FEF0EF0010E97
:101C50002D26000E2E222F22302230A032EF0EF041
:101C600034EF0EF04FEF0EF02DC022F02EC023F017
:101C70002FC024F030C025F0253425322432233201
:101C8000223222C02DF023C02EF024C02FF025C018
:101C900030F0314A322A4FEF0EF04FEF0EF032BEE5
:101CA0005AEF0EF0325008E13128D8A05AEF0EF06A
:101CB0005CEF0EF066EF0EF0000E2D6E000E2E6E35
:101CC000800E2F6E7F0E306E9AEF0EF032BE73EFE5
:101CD0000EF0325006E13104D8B071EF0EF073EF20
:101CE0000EF07FEF0EF0000E2D6E000E2E6E000E29
:101CF0002F6E000E306E000E266E9AEF0EF031C081
:101D00002CF0FF0E2D16FF0E2E167F0E2F16000E36
:101D100030162CA08EEF0EF090EF0EF093EF0EF039
:101D20002F8E93EF0EF0D8902C30306E9AEF0EF08D
:101D30009AEF0EF0265030122DC01AF02EC01BF074
:101D40002FC01CF030C01DF0A6EF0EF012000F5097
:101D5000800B1C6E0F500F24236E0EAEB2EF0EF0F0
:101D6000B4EF0EF0B7EF0EF02380B7EF0EF0235074
:101D7000D8B4BDEF0EF0BFEF0EF0D6EF0EF0232873
:101D8000D8A4C5EF0EF0C7EF0EF0D1EF0EF0000EA5
:101D90000C6E000E0D6E000E0E6E000E0F6ED1EF6B
:101DA0000EF00E8E000E0F6EE0EF0EF0000E0C6EB9
:101DB000000E0D6E000E0E6E000E0F6EE0EF0EF0B8
:101DC0001350800B1C1A13501324246E12AEEBEF29
:101DD0000EF0EDEF0EF0F0EF0EF02480F0EF0EF0CD
:101DE0002450D8B4F6EF0EF0F8EF0EF00FEF0FF02E
:101DF0002428D8A4FEEF0EF000EF0FF00AEF0FF04A
:101E0000000E106E000E116E000E126E000E136E9C
:101E10000AEF0FF0128E000E136E19EF0FF0000E86
:101E2000106E000E116E000E126E000E136E19EF82
:101E30000FF01050111012101310D8A422EF0FF051
:101E400024EF0FF03EEF0FF0000E0C6E000E0D6E43
:101E5000000E0E6E000E0F6E800E0E127F0E0F1211
:101E60001C500F120CC00CF00DC00DF00EC00EF087
:101E70000FC00FF0B6EF10F0B6EF10F02350D8A45B
:101E800044EF0FF046EF0FF05AEF0FF0000E0C6E1C
:101E9000000E0D6E000E0E6E000E0F6E0CC00CF0DC
:101EA0000DC00DF00EC00EF00FC00FF0B6EF10F029
:101EB000B6EF10F02450146E156A141E151E144A45
:101EC000152A2350166E176A14501626155017221D
:101ED0007F0E16241D6E000E17201E6E0CC018F00B
:101EE0000DC019F00EC01AF00FC01BF0000E0C6EE2
:101EF000000E0D6E000E0E6E000E0F6E000E1F6EA9
:101F0000000E206E000E216E000E226E000E246E5A
:101F1000C6EF0FF02450D8B490EF0FF092EF0FF00F
:101F2000ABEF0FF0D890183619361A361B36D8900A
:101F30000C360D360E360F3622AEA1EF0FF0A3EFA2
:101F40000FF0A4EF0FF00C80D8901F36203621360A
:101F50002236ABEF0FF01050185C11501958125088
:101F60001A5813501B58D8A0B8EF0FF0BAEF0FF063
:101F7000C5EF0FF0228C1050185E1150195A1250F4
:101F80001A5A13501B5AC5EF0FF0242A190E246455
:101F9000CCEF0FF0CEEF0FF08AEF0FF0D0EF0FF095
:101FA000185019101A101B10D8B4D9EF0FF0DBEF2E
:101FB0000FF0F7EF0FF01F80F7EF0FF0F7EF0FF0D4
:101FC000D8900C360D360E360F3622AEEAEF0FF0F3
:101FD000ECEF0FF0EDEF0FF00C80D8901F362036AD
:101FE000213622361D06D8A01E06F7EF0FF00EAEE2
:101FF000FCEF0FF0FEEF0FF0E0EF0FF000EF10F04E
:10200000000E246E22AE07EF10F009EF10F031EF52
:1020100010F0FF0E1F14146EFF0E2014156EFF0E2D
:102020002114166E7F0E2214176E14501510161000
:102030001710D8B41EEF10F020EF10F024EF10F0BE
:10204000010E246E31EF10F00CA029EF10F02BEFF1
:1020500010F031EF10F0010E246E31EF10F031EF7F
:1020600010F02450D8B437EF10F039EF10F061EFD2
:1020700010F0010E0C26000E0D220E220F220FA0D2
:1020800044EF10F046EF10F061EF10F00CC014F0C8
:102090000DC015F00EC016F00FC017F01734173230
:1020A00016321532143214C00CF015C00DF016C0E3
:1020B0000EF017C00FF01D4A1E2A61EF10F061EFFD
:1020C00010F01EBE6CEF10F01E5008E11D28D8A0C5
:1020D0006CEF10F06EEF10F07BEF10F0000E1E6E44
:1020E0001D68000E0C6E000E0D6E000E0E6E000EC2
:1020F0000F6E7BEF10F01EBE88EF10F01E5006E151
:102100001D04D8B086EF10F088EF10F098EF10F0B3
:10211000000E1E6E000E1D6E000E0C6E000E0D6E7B
:10212000000E0E6E000E0F6E000E1C6E98EF10F07B
:102130001DC023F023A09FEF10F0A1EF10F0A4EF3B
:1021400010F00E8EA7EF10F00E9EA7EF10F0D890B3
:1021500023300F6E1C500F120CC00CF00DC00DF090
:102160000EC00EF00FC00FF0B6EF10F012004DC011
:10217000D9FF4EC0DAFFDECFF6FFDDCFF7FF080054
:10218000F550250AD8A4C7EF10F0C9EF10F071EF91
:1021900012F04DC0D9FF4EC0DAFFDE2A000EDD225C
:1021A000000E6C6E000E6B6E6BC06FF06CC070F04A
:1021B0006D686E684DC0D9FF4EC0DAFFDECFF6FF06
:1021C000DDCFF7FF0800F550126E136A24EC1CF007
:1021D00012505B6E5B50D8B4F0EF10F0F2EF10F0DD
:1021E0002EEF11F04DC0D9FF4EC0DAFFDECF51F017
:1021F000DDCF52F0010E5126000E522251C0F6FFE3
:1022000052C0F7FF0800F550126E136A24EC1CF060
:1022100012505C6E5C50D8B410EF11F012EF11F058
:102220002EEF11F04DC0D9FF4EC0DAFFDECF51F0D6
:10223000DDCF52F0020E5126000E522251C0F6FFA1
:1022400052C0F7FF0800F550126E136A24EC1CF020
:1022500012505D6E2EEF11F02EEF11F0660E5B182E
:10226000D8A435EF11F037EF11F079EF11F04DC030
:10227000D9FF4EC0DAFFDECFF6FFDDCFF7FF080053
:10228000F5CF5EF04DC0D9FF4EC0DAFFDE2A000E5A
:10229000DD224FC0D9FF50C0DAFFDFCF51F0040E6E
:1022A000DE26DFCF52F0000EDD2251C0D9FF52C032
:1022B000DAFFDECF57F0DECF58F0DECF59F0DECFB9
:1022C0005AF04BC03FF04CC040F057C041F058C0EE
:1022D00042F059C043F05AC044F05EC045F01CECD7
:1022E00003F03FC04BF040C04CF090EF12F090EF85
:1022F00012F05B0E0C6E000E0D6E320E0E6E060EA0
:102300000F6E000E116E020E106E1BEC18F00C50CA
:102310000D10D8A48EEF11F090EF11F037EF12F0FE
:102320004DC0D9FF4EC0DAFFDECF51F0DDCF52F005
:10233000010E5126000E522251C0F6FF52C0F7FF87
:102340000800F5CF5EF0BF0E516EFF0E526E4DC00D
:10235000D9FF4EC0DAFFDECFF6FFDDCFF7FF080072
:10236000F550536E546A51505326525054225450D3
:102370000AE11A0E535CD8A0C0EF11F0C3EF11F0C0
:10238000010EC4EF11F0000E556E566ADCEF11F02D
:102390004DC0D9FF4EC0DAFFDECFF6FFDDCFF7FF2D
:1023A0000800F5500C6E0D6A40EC1EF00CC055F0A4
:1023B0000DC056F0DCEF11F055505610D8B4E3EFD5
:1023C00011F0E5EF11F0FFEF11F04FC0D9FF50C051
:1023D000DAFFDFCF51F0040EDE26DFCF52F0000E21
:1023E000DD2251C0D9FF52C0DAFFDECF57F0DECF79
:1023F00058F0DECF59F0DECF5AF017EF12F04FC091
:10240000D9FF50C0DAFFDFCF51F0040EDE26DFCF58
:1024100052F0000EDD2251C0D9FF52C0DAFFDECFEC
:1024200057F0DECF58F0DECF59F0DECF5AF0020E73
:102430004DC0D9FF4EC0DAFFDE26000EDD224BC0B4
:102440003FF04CC040F057C041F058C042F059C076
:1024500043F05AC044F05EC045F01CEC03F03FC0AE
:102460004BF040C04CF090EF12F090EF12F04DC0E6
:10247000D9FF4EC0DAFFDECFF6FFDDCFF7FF080051
:10248000F550250AD8A447EF12F049EF12F062EF99
:1024900012F04DC0D9FF4EC0DAFFDE2A000EDD2259
:1024A000000E0D6E250E0C6E4BC00EF04CC00FF0E2
:1024B0000FEC19F0000E4C6E010E4B6E90EF12F007
:1024C00090EF12F04DC0D9FF4EC0DAFFDE2A000EA9
:1024D000DD22000E4C6E000E4B6E90EF12F090EF6E
:1024E00012F04DC0D9FF4EC0DAFFDECFF6FFDDCFD0
:1024F000F7FF0800F5500C6E0D6A4BC00EF04CC093
:102500000FF00FEC19F04DC0D9FF4EC0DAFFDE2AF4
:10251000000EDD22000E4C6E010E4B6E90EF12F09D
:102520001200D6C035F0D7C036F0D8C037F0D9C0C9
:1025300038F025C035F026C036F027C037F028C067
:1025400038F0810E296EFF0E2A6E35C02BF036C092
:102550002CF037C02DF038C02EF0180EB5EF12F069
:10256000D8902E322D322C322B32E82EB0EF12F0D2
:102570002B502924336E000E2A20346E34BECAEF4D
:1025800012F0345009E1170E335CD8A0CAEF12F0F4
:10259000CCEF12F0D6EF12F025C025F026C026F0C1
:1025A00027C027F028C028F0A9EF13F034BEDBEFD6
:1025B00012F0DDEF12F055EF13F033C029F0FF0EEB
:1025C0002A6EFF0E2B6E7F0E2C6E000E2D6E29666E
:1025D000ECEF12F0F4EF12F02D342D322C322B32BE
:1025E0002A32292EE7EF12F02AC02FF02BC030F04C
:1025F0002CC031F02DC032F02F503514296E3050E0
:1026000036142A6E315037142B6E325038142C6E1B
:1026100029502A102B102C10D8A411EF13F013EF0F
:1026200013F01DEF13F025C025F026C026F027C0BB
:1026300027F028C028F0A9EF13F035C029F036C0E4
:102640002AF037C02BF038C02CF0200E2DEF13F0FD
:10265000D8902C322B322A322932E82E28EF13F070
:1026600029502A102B102C10D8B439EF13F03BEF5F
:1026700013F043EF13F02F503526305036223150EF
:102680003722325038222F1C296E301C2A6E311C02
:102690002B6E321C2C6E295035162A5036162B50B4
:1026A00037162C5038169FEF13F035C029F036C07E
:1026B0002AF037C02BF038C02CF0200E65EF13F055
:1026C000D8902C322B322A322932E82E60EF13F0C8
:1026D00029502A102B102C10D8A471EF13F073EF8F
:1026E00013F07DEF13F0000E356E000E366E000E07
:1026F000376E000E386E9FEF13F0D8903534296E88
:1027000036342A6E37342B6E38342C6E29502A100A
:102710002B102C10D8B48FEF13F091EF13F09FEF24
:1027200013F0000E356E000E366E800E376EBF0E43
:10273000386E9FEF13F09FEF13F09FEF13F035C04B
:1027400025F036C026F037C027F038C028F0A9EFB2
:1027500013F01200146E1450D8B4B1EF13F0B3EFAD
:1027600013F0D5EF13F00FBEBAEF13F0B8EF13F07C
:10277000D5EF13F00CC010F00DC011F00EC012F028
:102780000FC013F0101E111E121E131E102A000E71
:1027900011221222132210C016F011C017F012C01D
:1027A00018F013C019F0DFEF13F00CC016F00DC0D5
:1027B00017F00EC018F00FC019F0DFEF13F00C5037
:1027C0000D100E100F10D8A4E8EF13F0EAEF13F07D
:1027D000F6EF13F0000E0C6E000E0D6E000E0E6E76
:1027E000000E0F6E97EF14F097EF14F0960E156E23
:1027F00002EF14F0152AD890193218321732163217
:1028000002EF14F0000E1614106E000E1714116E65
:10281000000E1814126EFE0E1914136E10501110C3
:1028200012101310D8A417EF14F019EF14F0FAEFE8
:1028300013F029EF14F029EF14F0152A010E1626D3
:10284000000E172218221922D89019321832173286
:102850001632000E1614106E000E1714116E000EB4
:102860001814126EFF0E1914136E1050111012105E
:102870001310D8A43EEF14F040EF14F01DEF14F045
:102880004CEF14F04CEF14F01506D89016361736AE
:10289000183619364CEF14F018BE51EF14F053EF00
:1028A00014F05DEF14F0020E156059EF14F05BEFB9
:1028B00014F044EF14F05DEF14F015B062EF14F073
:1028C00064EF14F067EF14F0189E67EF14F0D890DF
:1028D000153215C010F0116A126A136A10C013F095
:1028E000126A116A106A1050161211501712125003
:1028F0001812135019121450D8B481EF14F083EF4A
:1029000014F08DEF14F00FBE8AEF14F088EF14F07E
:102910008DEF14F0198E8DEF14F016C00CF017C067
:102920000DF018C00EF019C00FF097EF14F0120060
:102930000CC018F00DC019F010501110D8A4A3EF5E
:1029400014F0A5EF14F0A9EF14F076EF15F076EF80
:1029500015F018C0D9FF19C0DAFF0EC0DFFFFF0E57
:10296000126EFF0E136E10C014F011C015F012504D
:1029700014261350152214501824D96E15501920FE
:10298000DA6E0EC0DFFF115007E1030E105CD8B005
:10299000CCEF14F0CEEF14F0D2EF14F076EF15F088
:1029A00076EF15F020EE01F01850D9261950DA22F2
:1029B0000EC0DFFF20EE02F01850D9261950DA229F
:1029C0000EC0DFFFFE0E126EFF0E136E10C014F06D
:1029D00011C015F01250142613501522145018244B
:1029E000D96E15501920DA6E0EC0DFFFFD0E126E83
:1029F000FF0E136E10C014F011C015F01250142603
:102A00001350152214501824D96E15501920DA6E5F
:102A10000EC0DFFF115007E1070E105CD8B013EFB6
:102A200015F015EF15F019EF15F076EF15F076EFBC
:102A300015F020EE03F01850D9261950DA220EC0F6
:102A4000DFFFFC0E126EFF0E136E10C014F011C0EB
:102A500015F0125014261350152214501824D96E54
:102A600015501920DA6E0EC0DFFF115007E1090E74
:102A7000105CD8B03EEF15F040EF15F044EF15F0C4
:102A800076EF15F076EF15F018C012F019C013F0BC
:102A9000121E131E124A132A030E1214166E176A00
:102AA00016501826175019221650105E1750115A3A
:102AB000FC0E1016FF0E11166BEF15F018C0D9FFA3
:102AC00019C0DAFF0EC0DFFF1006D8A01106184AA1
:102AD000192A6BEF15F010501110D8A472EF15F0F1
:102AE00074EF15F05EEF15F076EF15F0120099EC2B
:102AF0001CF0000E0001D16F000ED06F000ECC6FE5
:102B0000000ECD6F000ECE6F000ECF6F000ED36F94
:102B1000000ED26FD3BF96EF15F0D35109E10A0E24
:102B2000D25DD8A096EF15F098EF15F09CEF15F058
:102B300034EF16F034EF16F0000E0D6E000E0C6E32
:102B4000FDEC1DF00CC0D0F00DC0D1F0D0C00CF0E9
:102B5000D1C00DF0000E0DBEFF0E0E6E0F6E010EF9
:102B6000AAEC13F00CC01AF00DC01BF00EC01CF044
:102B70000FC01DF00A0E1E6E280E1F6EA00E206ED6
:102B80003B0E216E70EC0CF01AC0CCF01BC0CDF0E7
:102B90001CC0CEF01DC0CFF0DA0E0C6E000E0D6E14
:102BA000000E0F6E000E0E6E000E116E0A0E106EED
:102BB00098EC14F0DA0E0001BA6F000EBB6F310E04
:102BC000BC6F060EBD6FCCC0BEF0CDC0BFF0CEC096
:102BD000C0F0CFC0C1F033EC1DF0DA0E0D6E000E68
:102BE0000E6EE1EC1BF0350E0D6E060E0E6EE1EC76
:102BF0001BF0000E0001D56F000ED46FD5BF0AEF99
:102C000016F0100ED45D270ED559D8A00AEF16F095
:102C10000CEF16F010EF16F022EF16F022EF16F080
:102C2000D44BD52BD5BF1EEF16F0100ED45D270E5A
:102C3000D559D8A01EEF16F020EF16F010EF16F0C1
:102C400022EF16F0D24BD32BD3BF30EF16F0D35177
:102C500009E10A0ED25DD8A030EF16F032EF16F07F
:102C60009CEF15F034EF16F099EC1CF01200000EFA
:102C700033143B6E000E34143C6E800E35143D6EE2
:102C80007F0E36143E6E3B503C103D103E10D8A4D3
:102C90004CEF16F04EEF16F058EF16F0000E336EB4
:102CA000000E346E000E356E000E366E58EF16F0C4
:102CB000000E37143B6E000E38143C6E800E391433
:102CC0003D6E7F0E3A143E6E3B503C103D103E1060
:102CD000D8A46DEF16F06FEF16F079EF16F0000E36
:102CE000376E000E386E000E396E000E3A6E79EFB8
:102CF00016F036AE7EEF16F080EF16F09FEF16F06E
:102D000033C03BF034C03CF035C03DF036C03EF03F
:102D10003B1E3C1E3D1E3E1E3B2A000E3C223D2219
:102D20003E22000E3B24336E000E3C20346E000E1B
:102D30003D20356E800E3E20366E9FEF16F03AAE87
:102D4000A4EF16F0A6EF16F0C3EF16F037C03BF075
:102D500038C03CF039C03DF03AC03EF03B1E3C1E4E
:102D60003D1E3E1E3B2A000E3C223D223E22000E0E
:102D70003B24376E000E3C20386E000E3D20396E2D
:102D8000800E3E203A6E000E331A000E341A000EEA
:102D9000351A800E361A000E371A000E381A000E39
:102DA000391A800E3A1A3750335C3850345839503B
:102DB00035583A503658D8B0E0EF16F0E2EF16F03A
:102DC000E5EF16F0D890EAEF16F0D880EAEF16F0AB
:102DD000EAEF16F012000E340F34156E1550D8A419
:102DE000F4EF16F0F6EF16F002EF17F0000E0C6E8F
:102DF000000E0D6E000E0E6E000E0F6E93EF17F0AC
:102E000093EF17F00CC010F00DC011F00EC012F0CF
:102E10000FC013F0200E12EF17F0D89013321232B9
:102E200011321032E82E0DEF17F01050146E0E8E86
:102E3000FF0E0C16FF0E0D16FF0E0E16000E0F16CF
:102E4000960E155E15BE29EF17F027EF17F04DEF20
:102E500017F01550800A970FD8B031EF17F033EF05
:102E600017F041EF17F0000E0C6E000E0D6E000E05
:102E70000E6E000E0F6E93EF17F093EF17F041EF09
:102E800017F0D8900F320E320D320C32153E41EF52
:102E900017F077EF17F077EF17F01F0E156453EF69
:102EA00017F055EF17F06BEF17F0000E0C6E000ED9
:102EB0000D6E000E0E6E000E0F6E93EF17F093EF77
:102EC00017F06BEF17F0D8900C360D360E360F3624
:102ED00015066BEF17F01550D8A471EF17F073EFCC
:102EE00017F063EF17F077EF17F077EF17F0145044
:102EF000D8B47DEF17F07FEF17F089EF17F00F1EB2
:102F00000E1E0D1E0C6C000E0D220E220F2289EFDC
:102F100017F00CC00CF00DC00DF00EC00EF00FC07D
:102F20000FF093EF17F0120065C016F066C017F0AF
:102F300067C018F068C019F00CC016F00DC017F08B
:102F40000EC018F00FC019F016C010F017C011F025
:102F500018C012F019C013F0180EB4EF17F0D89083
:102F60001332123211321032E82EAFEF17F0105038
:102F7000146E156A14501510D8A4C1EF17F0C3EFE2
:102F800017F0E7EF17F0D8901634106E1734116E63
:102F90001834126E1934136E1050111012101310D1
:102FA000D8A4D5EF17F0D7EF17F0DDEF17F0000E2C
:102FB0000D6E020E0C6E1AEF18F0000E0D6E030E61
:102FC0000C6E1AEF18F01AEF18F01AEF18F0142818
:102FD0001510D8A4EEEF17F0F0EF17F014EF18F07B
:102FE00016C010F017C011F018C012F019C013F07D
:102FF000090ED8901036113612361336E82EF9EF36
:1030000017F01050111012101310D8B40AEF18F066
:103010000DEF18F0010E0EEF18F0000E0C6E0D6A99
:103020001AEF18F01AEF18F0000E0D6E040E0C6E69
:103030001AEF18F012000CC015F00DC016F00EC0FB
:1030400017F00FC018F01006D8A01106102806E1DE
:103050001128D8A42EEF18F030EF18F043EF18F035
:10306000000E0D6E000E0C6E98EF18F098EF18F031
:1030700043EF18F0154A162A174A182A1006D8A046
:10308000110643EF18F015C0D9FF16C0DAFFDF5064
:10309000D8B44DEF18F04FEF18F07EEF18F017C0CE
:1030A000F6FF18C0F7FF0800F5500009D8B45BEF31
:1030B00018F05DEF18F07EEF18F010501110D8B432
:1030C00064EF18F066EF18F07EEF18F015C0D9FF26
:1030D00016C0DAFFDF50126E17C0F6FF18C0F7FFF8
:1030E0000800F5501218D8B478EF18F07AEF18F0FD
:1030F0003AEF18F07EEF18F07EEF18F017C0F6FFE9
:1031000018C0F7FF0800F550126E136A121E131E46
:10311000124A132A15C0D9FF16C0DAFFDF50146E09
:10312000145012240C6E000E13200D6E98EF18F040
:103130001200000E116E0FBEA2EF18F0A0EF18F0F3
:10314000AAEF18F00E6C0F1ED8B00F2A010E116EE8
:10315000AAEF18F00DBEB1EF18F0AFEF18F0B9EF0D
:1031600018F00C6C0D1ED8B00D2A010E111AB9EF13
:1031700018F0000E136E000E126E0E500F10D8B421
:10318000C4EF18F0C6EF18F0FAEF18F0010E106E49
:10319000D0EF18F0D8900E360F36102AD0EF18F076
:1031A0000FAED5EF18F0D7EF18F0CAEF18F0DBEF3D
:1031B00018F0DBEF18F0D890123613360E500C5C76
:1031C0000F500D58D8A0E7EF18F0E9EF18F0F0EF26
:1031D00018F00E500C5E0F500D5A1280F0EF18F0E0
:1031E000D8900F320E32102EDBEF18F0FAEF18F0F5
:1031F000FAEF18F01150D8B400EF19F002EF19F0FF
:1032000008EF19F0126C131ED8B0132A08EF19F04A
:1032100012C00CF013C00DF00EEF19F012000E509A
:103220000F10D8B416EF19F018EF19F023EF19F0BA
:103230000E500F10D8A41FEF19F021EF19F028EF4E
:1032400019F023EF19F00C50F8EC1EF07DEF19F097
:1032500020EE04F00E50D9260F50DA22DE50DE1098
:10326000D8B435EF19F037EF19F054EF19F020EE1C
:1032700004F00E50D9260F50DA2210EE02F00E5054
:10328000E1260F50E222DE50E65CE650800A146E22
:10329000DE50800A1458D8B050EF19F052EF19F0F0
:1032A0007DEF19F054EF19F020EE02F00E50D92600
:1032B0000F50DA22DECF10F0DDCF11F00EC0D9FFB3
:1032C0000FC0DAFFDECF12F0DDCF13F01050122462
:1032D000D96E11501320DA6E0CC0DFFF20EE02F021
:1032E0000E50D9260F50DA22DE2A000EDD227DEFA5
:1032F00019F07DEF19F07DEF19F012001B501C1032
:10330000D8B485EF19F087EF19F0E3EF19F01BC07F
:103310000CF01CC00DF064EC1CF00CC01DF00DC0D6
:103320001EF0C8EF19F019C00CF01AC00DF01BC048
:103330000EF01CC00FF01DC010F01EC011F01BECF1
:1033400018F00C500D10D8A4A8EF19F0AAEF19F03E
:10335000B2EF19F019C019F01AC01AF0E9EF19F01C
:10336000E9EF19F0010E19240C6E000E1A200D6EF3
:103370001BC0F6FF1CC0F7FF0800F5500E6E0F6A69
:1033800062EC1DF00CC019F00DC01AF0C8EF19F076
:1033900019501A10D8B4CFEF19F0D1EF19F0E3EFAC
:1033A00019F019C0D9FF1AC0DAFFDF50D8A4DBEF3B
:1033B00019F0DDEF19F093EF19F0E3EF19F0E3EFF7
:1033C00019F0E3EF19F0000E196E000E1A6EE9EF16
:1033D00019F01200000E116E0DBEF3EF19F0F1EFAF
:1033E00019F0FBEF19F00C6C0D1ED8B00D2A010E70
:1033F000116EFBEF19F00FBE02EF1AF000EF1AF09A
:1034000008EF1AF00E6C0F1ED8B00F2A08EF1AF052
:103410000E500F10D8B40FEF1AF011EF1AF041EF61
:103420001AF0010E106E1BEF1AF0D8900E360F3600
:10343000102A1BEF1AF00FAE20EF1AF022EF1AF04D
:1034400015EF1AF026EF1AF026EF1AF00E500C5C6A
:103450000F500D58D8A02FEF1AF031EF1AF037EFB8
:103460001AF00E500C5E0F500D5A37EF1AF0D8902C
:103470000F320E32102E26EF1AF041EF1AF041EF04
:103480001AF01150D8B447EF1AF049EF1AF04FEF85
:103490001AF00C6C0D1ED8B00D2A4FEF1AF00CC0AC
:1034A0000CF00DC00DF055EF1AF01200000E066E74
:1034B00002BE5FEF1AF05DEF1AF067EF1AF0016CD1
:1034C000021ED8B0022A010E066E67EF1AF004BE83
:1034D0006EEF1AF06CEF1AF074EF1AF0036C041E22
:1034E000D8B0042A74EF1AF003500410D8B47BEF5C
:1034F0001AF07DEF1AF0ADEF1AF0010E056E87EFAE
:103500001AF0D89003360436052A87EF1AF004AE75
:103510008CEF1AF08EEF1AF081EF1AF092EF1AF09A
:1035200092EF1AF00350015C04500258D8A09BEFB0
:103530001AF09DEF1AF0A3EF1AF00350015E045049
:10354000025AA3EF1AF0D89004320332052E92EFFC
:103550001AF0ADEF1AF0ADEF1AF00650D8B4B3EF91
:103560001AF0B5EF1AF0BBEF1AF0016C021ED8B0DA
:10357000022ABBEF1AF001C001F002C002F0C1EF55
:103580001AF012006FA0C7EF1AF0C9EF1AF0D5EFCA
:103590001AF01EC015F01FC016F01CC017F01DC099
:1035A00018F08EEC1DF0D5EF1AF021BEDAEF1AF00C
:1035B000DCEF1AF0E2EF1AF020C025F021C026F06F
:1035C000E6EF1AF0000E266E000E256E000E246E39
:1035D000000E236EFAEF1AF0000E0D6E200E0C6E28
:1035E0001CC00EF01DC00FF00FEC19F0234A242A66
:1035F000FAEF1AF02550235C2450800A226E2650E0
:10360000800A2258D8A007EF1BF009EF1BF0ECEF5F
:103610001AF06FB00EEF1BF010EF1BF01CEF1BF059
:103620001EC015F01FC016F01CC017F01DC018F00A
:103630008EEC1DF01CEF1BF01EC00CF01FC00DF037
:1036400064EC1CF025500C241C6E26500D201D6EC1
:103650002AEF1BF01200000E0C14146E000E0D1455
:10366000156E800E0E14166E7F0E0F14176E14500A
:10367000151016101710D8A440EF1BF042EF1BF0E6
:103680004CEF1BF0000E0C6E000E0D6E000E0E6E59
:10369000000E0F6E4CEF1BF0000E1014146E000E97
:1036A0001114156E800E1214166E7F0E1314176E01
:1036B0001450151016101710D8A461EF1BF063EF0B
:1036C0001BF06DEF1BF0000E106E000E116E000E61
:1036D000126E000E136E6DEF1BF010500C180FE100
:1036E00011500D180CE112500E1809E113500F186B
:1036F000D8B47DEF1BF07FEF1BF082EF1BF0D8906A
:1037000087EF1BF0D88087EF1BF087EF1BF01200CC
:10371000D7EC1EF08CEF1BF0E2EC1EF00CC019F0A1
:103720000DC01AF01B0E1B6E060E1C6E7EEC19F0FF
:1037300019501A10D8B49FEF1BF0A1EF1BF0A5EFA2
:103740001BF099EC1CF08CEF1BF0E2EC1EF00CC0AF
:1037500019F00DC01AF00F0E1B6E060E1C6E7EECDB
:1037600019F019501A10D8B4B8EF1BF0BAEF1BF0CB
:10377000BEEF1BF09CEC1EF08CEF1BF0E2EC1EF099
:103780000CC019F00DC01AF0150E1B6E060E1C6E43
:103790007EEC19F019501A10D8B4D1EF1BF0D3EF0A
:1037A0001BF08CEF1BF077EC15F08CEF1BF08CEF1F
:1037B0001BF08CEF1BF08CEF1BF08CEF1BF03CEF41
:1037C00000F0000E126E000E116E03EF1CF011508F
:1037D0000D240F6E12500E20106E0FC0F6FF10C099
:1037E000F7FFF86A050EF76403D00800F55005D01E
:1037F000F6CFE1FFF7CFE2FFE750ADEC1EF0114A44
:10380000122A03EF1CF011500D240F6E12500E20DF
:10381000106E0FC0F6FF10C0F7FFF86A050EF764D0
:1038200003D00800F55005D0F6CFE1FFF7CFE2FF57
:10383000E7500009D8A41FEF1CF021EF1CF0E7EFC0
:103840001BF023EF1CF01200BF0E146EFF0E156E5E
:1038500012C016F013C017F0145016261550172278
:1038600017500AE11A0E165CD8A039EF1CF03CEF95
:103870001CF0010E3DEF1CF0000E186E196A4DEFA2
:103880001CF012C00CF013C00DF040EC1EF00CC088
:1038900018F00DC019F04DEF1CF018501910D8B4E5
:1038A00054EF1CF056EF1CF05FEF1CF0200E1210CE
:1038B000126E1350136E63EF1CF063EF1CF012C016
:1038C00012F013C013F012000CC010F00DC011F074
:1038D0006EEF1CF00C4A0D2A6EEF1CF00CC0F6FFC8
:1038E0000DC0F7FFF86A050EF76403D00800F55025
:1038F00005D0F6CFE1FFF7CFE2FFE7500009D8A4EB
:1039000084EF1CF086EF1CF06AEF1CF088EF1CF0CF
:1039100010C00EF011C00FF00E1E0F1E0E4A0F2A1F
:103920000C500E240C6E0D500F200D6E98EF1CF0F5
:103930001200000E0D6E000E0C6E0DBEA9EF1CF0F5
:103940000D5009E10A0E0C5CD8A0A9EF1CF0ABEFFA
:103950001CF0AFEF1CF0C9EF1CF0C9EF1CF0E40E37
:103960000C24D96E000E0D20DA6E000EDF6E0C4AAC
:103970000D2A0DBEC5EF1CF00D5009E10A0E0C5CBE
:10398000D8A0C5EF1CF0C7EF1CF0AFEF1CF0C9EFDB
:103990001CF0000E726E000E716E12000EC012F05E
:1039A0000FC013F00CC014F00DC015F0DAEF1CF0CE
:1039B000DAEF1CF01250106E1350116E124A132AD7
:1039C00010C0F6FF11C0F7FFF86A14C0D9FF15C088
:1039D000DAFF144A152A050EF76403D00800F550E3
:1039E00005D0F6CFE1FFF7CFE2FFE750DF6EDF5003
:1039F000D8A4FDEF1CF0FFEF1CF0DAEF1CF001EF94
:103A00001DF0120061C0B8F062C0B9F0000E6A6E1D
:103A1000000E696E20EF1DF05FC04BF060C04CF0EF
:103A2000B80E4D6E000E4E6E63C04FF064C050F085
:103A3000B7EC10F04B5069264C506A2220EF1DF075
:103A4000B8C0F6FFB9C0F7FF0800F5500009D8A4C8
:103A50002CEF1DF02EEF1DF00CEF1DF069C05FF094
:103A60006AC060F01200BE0E0001C46F000EC56F88
:103A7000BAC0C6F0BBC0C7F0000EC96F000EC86F59
:103A8000000ECB6F000ECA6FC60E5F6E000E606E2A
:103A9000BCC061F0BDC062F0C40E636E000E646E07
:103AA00002EC1DF05FC0C2F060C0C3F00001C8515D
:103AB000BA25D96EC951BB21DA6E000EDF6E61EFF7
:103AC0001DF012000CC0D9FF0DC0DAFF0E50DE1839
:103AD000D8A46DEF1DF06FEF1DF077EF1DF00CC057
:103AE0000CF00DC00DF08DEF1DF08DEF1DF00CC032
:103AF000D9FF0DC0DAFF0C4A0D2ADF50D8A483EF9E
:103B00001DF085EF1DF062EF1DF087EF1DF0000E38
:103B10000C6E000E0D6E8DEF1DF01200000E1B6E70
:103B2000000E1A6EA1EF1DF019C00CF00D6A17C03F
:103B30000EF018C00FF00FEC19F01A4A1B2AA1EF73
:103B40001DF01A501524D96E1B501620DA6EDF5066
:103B5000196E1950D8A4AFEF1DF0B1EF1DF094EF1E
:103B60001DF0B3EF1DF01200000E371A000E381AC8
:103B7000000E391A800E3A1A33C00CF034C00DF022
:103B800035C00EF036C00FF037C010F038C011F05D
:103B900039C012F03AC013F0AEEC09F00CC033F0AB
:103BA0000DC034F00EC035F00FC036F0D8EF1DF068
:103BB0001200E40E7124D96E000E7220DA6EAECFC0
:103BC000DFFFE40E7124D96E000E7220DA6EDF5032
:103BD000BCEC1EF0714A722A71C001F072C002F092
:103BE000000E046E0A0E036E56EC1AF001C071F05E
:103BF00002C072F0FCEF1DF01200C294C296C2988F
:103C0000C29AC282C28005EF1EF0C2B20AEF1EF055
:103C10000CEF1EF005EF1EF00EEF1EF0C350C4CFE8
:103C20000EF00F6A0EC00FF00E6A0E10106E0F50DD
:103C3000116E10C00CF011C00DF01FEF1EF012003D
:103C40000C500D100E100F10D8B429EF1EF02BEFF2
:103C50001EF035EF1EF0000E0C1A000E0D1A000EAD
:103C60000E1A800E0F1A35EF1EF00CC00CF00DC0AE
:103C70000DF00EC00EF00FC00FF03FEF1EF012005F
:103C8000BF0E0E6EFF0E0F6E0CC010F00DC011F0C7
:103C90000E5010260F50112211500AE11A0E105C1E
:103CA000D8A055EF1EF058EF1EF0010E59EF1EF090
:103CB000000E0C6E0D6A5DEF1EF0120001EE00F0BA
:103CC000500EEE6AE806FDE100EED6F0180EEE6A40
:103CD000E806FDE100EE65F00E0EEE6AE806FDE195
:103CE00073907392000EF86E000188EF1BF00600CF
:103CF0009EA47DEF1EF07FEF1EF089EF1EF0827410
:103D00009E94000EB36E000EB26E89EF1EF089EF26
:103D10001EF073921100948C948EAC98B896AC847B
:103D2000330EAF6EAB8E9E889E9AAC8AAB889D9800
:103D30009F989D8A9F9A120099EC1CF0010E0D6EBF
:103D4000060E0E6EE1EC1BF0080E0D6E060E0E6EEA
:103D5000E1EC1BF099EC1CF012000C6EB0EF1EF0C1
:103D6000ACA2B5EF1EF0B7EF1EF0B0EF1EF0B9EF4A
:103D70001EF00CC0ADFF1200016EBFEF1EF0ACA232
:103D8000C4EF1EF0C6EF1EF0BFEF1EF0C8EF1EF02E
:103D900001C0ADFF120092680E0EC16EC08EC080D1
:103DA000C082C084000EC46E000EC36E1200EFEC21
:103DB0001EF0F4EC1EF08BEC1EF0E9EC1EF0CBECE8
:103DC0001EF01200E40E0C6E000E0D6EE8EF1EF0F9
:103DD00012009494090EBD6E9E949F841200D350DD
:103DE0008F0B6009D36E1200D08EF28EF28C12000F
:023DF0001200BF
:020000040020DA
:08000000FFFFFFFFFFFFFFFF00
:020000040030CA
:0E000000FF881F00FF8381FF0FC00FE00F403D
:00000001FF
